{
  "contractName": "HealthRecordMgt",
  "abi": [
    {
      "inputs": [
        {
          "internalType": "address[]",
          "name": "_admin",
          "type": "address[]"
        },
        {
          "internalType": "string",
          "name": "providerName",
          "type": "string"
        }
      ],
      "stateMutability": "nonpayable",
      "type": "constructor"
    },
    {
      "inputs": [
        {
          "internalType": "uint256",
          "name": "",
          "type": "uint256"
        }
      ],
      "name": "healthrecords",
      "outputs": [
        {
          "internalType": "uint256",
          "name": "patientId",
          "type": "uint256"
        },
        {
          "internalType": "uint256",
          "name": "recordId",
          "type": "uint256"
        },
        {
          "internalType": "string",
          "name": "healthRemarks",
          "type": "string"
        },
        {
          "internalType": "uint256",
          "name": "doctorId",
          "type": "uint256"
        },
        {
          "internalType": "uint256",
          "name": "providerId",
          "type": "uint256"
        },
        {
          "internalType": "uint256",
          "name": "date",
          "type": "uint256"
        }
      ],
      "stateMutability": "view",
      "type": "function",
      "constant": true
    },
    {
      "inputs": [],
      "name": "nextProviderId",
      "outputs": [
        {
          "internalType": "uint256",
          "name": "",
          "type": "uint256"
        }
      ],
      "stateMutability": "view",
      "type": "function",
      "constant": true
    },
    {
      "inputs": [],
      "name": "nextRecordId",
      "outputs": [
        {
          "internalType": "uint256",
          "name": "",
          "type": "uint256"
        }
      ],
      "stateMutability": "view",
      "type": "function",
      "constant": true
    },
    {
      "inputs": [],
      "name": "nextUserId",
      "outputs": [
        {
          "internalType": "uint256",
          "name": "",
          "type": "uint256"
        }
      ],
      "stateMutability": "view",
      "type": "function",
      "constant": true
    },
    {
      "inputs": [
        {
          "internalType": "uint256",
          "name": "",
          "type": "uint256"
        }
      ],
      "name": "serviceproviders",
      "outputs": [
        {
          "internalType": "uint256",
          "name": "providerId",
          "type": "uint256"
        },
        {
          "internalType": "string",
          "name": "providerName",
          "type": "string"
        }
      ],
      "stateMutability": "view",
      "type": "function",
      "constant": true
    },
    {
      "inputs": [
        {
          "internalType": "uint256",
          "name": "",
          "type": "uint256"
        }
      ],
      "name": "users",
      "outputs": [
        {
          "internalType": "uint256",
          "name": "userId",
          "type": "uint256"
        },
        {
          "internalType": "address",
          "name": "user",
          "type": "address"
        },
        {
          "internalType": "string",
          "name": "userName",
          "type": "string"
        },
        {
          "internalType": "enum HealthRecordMgt.RoleType",
          "name": "role",
          "type": "uint8"
        },
        {
          "internalType": "enum HealthRecordMgt.StatusType",
          "name": "userStatus",
          "type": "uint8"
        },
        {
          "internalType": "bool",
          "name": "created",
          "type": "bool"
        },
        {
          "internalType": "uint256",
          "name": "providerId",
          "type": "uint256"
        }
      ],
      "stateMutability": "view",
      "type": "function",
      "constant": true
    },
    {
      "inputs": [
        {
          "internalType": "string",
          "name": "providerName",
          "type": "string"
        }
      ],
      "name": "addServiceProvider",
      "outputs": [],
      "stateMutability": "nonpayable",
      "type": "function"
    },
    {
      "inputs": [
        {
          "internalType": "uint256",
          "name": "providerId",
          "type": "uint256"
        },
        {
          "internalType": "string",
          "name": "providerName",
          "type": "string"
        }
      ],
      "name": "updateServiceProvider",
      "outputs": [],
      "stateMutability": "nonpayable",
      "type": "function"
    },
    {
      "inputs": [
        {
          "internalType": "address",
          "name": "user",
          "type": "address"
        },
        {
          "internalType": "string",
          "name": "userName",
          "type": "string"
        },
        {
          "internalType": "enum HealthRecordMgt.RoleType",
          "name": "role",
          "type": "uint8"
        },
        {
          "internalType": "uint256",
          "name": "providerId",
          "type": "uint256"
        }
      ],
      "name": "addUser",
      "outputs": [],
      "stateMutability": "nonpayable",
      "type": "function"
    },
    {
      "inputs": [
        {
          "internalType": "uint256",
          "name": "userId",
          "type": "uint256"
        },
        {
          "internalType": "address",
          "name": "user",
          "type": "address"
        },
        {
          "internalType": "string",
          "name": "userName",
          "type": "string"
        },
        {
          "internalType": "enum HealthRecordMgt.RoleType",
          "name": "role",
          "type": "uint8"
        },
        {
          "internalType": "enum HealthRecordMgt.StatusType",
          "name": "userStatus",
          "type": "uint8"
        },
        {
          "internalType": "uint256",
          "name": "providerId",
          "type": "uint256"
        }
      ],
      "name": "updateUser",
      "outputs": [],
      "stateMutability": "nonpayable",
      "type": "function"
    },
    {
      "inputs": [
        {
          "internalType": "uint256",
          "name": "userId",
          "type": "uint256"
        }
      ],
      "name": "deleteUser",
      "outputs": [],
      "stateMutability": "nonpayable",
      "type": "function"
    },
    {
      "inputs": [
        {
          "internalType": "uint256",
          "name": "patientId",
          "type": "uint256"
        },
        {
          "internalType": "string",
          "name": "helathRemarks",
          "type": "string"
        }
      ],
      "name": "createHealthRecord",
      "outputs": [],
      "stateMutability": "nonpayable",
      "type": "function"
    },
    {
      "inputs": [
        {
          "internalType": "uint256",
          "name": "patientId",
          "type": "uint256"
        },
        {
          "internalType": "uint256",
          "name": "recordId",
          "type": "uint256"
        },
        {
          "internalType": "string",
          "name": "helathRemarks",
          "type": "string"
        }
      ],
      "name": "updateHealthRecord",
      "outputs": [],
      "stateMutability": "nonpayable",
      "type": "function"
    },
    {
      "inputs": [
        {
          "internalType": "uint256",
          "name": "patientId",
          "type": "uint256"
        }
      ],
      "name": "getHealthRecords",
      "outputs": [
        {
          "components": [
            {
              "internalType": "uint256",
              "name": "patientId",
              "type": "uint256"
            },
            {
              "internalType": "uint256",
              "name": "recordId",
              "type": "uint256"
            },
            {
              "internalType": "string",
              "name": "healthRemarks",
              "type": "string"
            },
            {
              "internalType": "uint256",
              "name": "doctorId",
              "type": "uint256"
            },
            {
              "internalType": "uint256",
              "name": "providerId",
              "type": "uint256"
            },
            {
              "internalType": "uint256",
              "name": "date",
              "type": "uint256"
            }
          ],
          "internalType": "struct HealthRecordMgt.HealthRecord[]",
          "name": "",
          "type": "tuple[]"
        }
      ],
      "stateMutability": "view",
      "type": "function",
      "constant": true
    },
    {
      "inputs": [],
      "name": "getMyHealthRecords",
      "outputs": [
        {
          "components": [
            {
              "internalType": "uint256",
              "name": "patientId",
              "type": "uint256"
            },
            {
              "internalType": "uint256",
              "name": "recordId",
              "type": "uint256"
            },
            {
              "internalType": "string",
              "name": "healthRemarks",
              "type": "string"
            },
            {
              "internalType": "uint256",
              "name": "doctorId",
              "type": "uint256"
            },
            {
              "internalType": "uint256",
              "name": "providerId",
              "type": "uint256"
            },
            {
              "internalType": "uint256",
              "name": "date",
              "type": "uint256"
            }
          ],
          "internalType": "struct HealthRecordMgt.HealthRecord[]",
          "name": "",
          "type": "tuple[]"
        }
      ],
      "stateMutability": "view",
      "type": "function",
      "constant": true
    }
  ],
  "bytecode": "0x60806040526001600055600160025560016004553480156200002057600080fd5b5060405162003f4b38038062003f4b833981810160405281019062000046919062000453565b60405180604001604052806000548152602001828152506001600080548152602001908152602001600020600082015181600001556020820151816001019080519060200190620000999291906200029d565b50905050600080815480929190600101919050555060005b825181101562000294576040518060e001604052806002548152602001848381518110620000db57fe5b602002602001015173ffffffffffffffffffffffffffffffffffffffff1681526020016040518060400160405280600581526020017f41646d696e0000000000000000000000000000000000000000000000000000008152508152602001600060028111156200014757fe5b8152602001600060018111156200015a57fe5b81526020016001151581526020016000548152506003600060025481526020019081526020016000206000820151816000015560208201518160010160006101000a81548173ffffffffffffffffffffffffffffffffffffffff021916908373ffffffffffffffffffffffffffffffffffffffff1602179055506040820151816002019080519060200190620001f29291906200029d565b5060608201518160030160006101000a81548160ff021916908360028111156200021857fe5b021790555060808201518160030160016101000a81548160ff021916908360018111156200024257fe5b021790555060a08201518160030160026101000a81548160ff02191690831515021790555060c082015181600401559050506002600081548092919060010191905055508080600101915050620000b1565b505050620005e2565b828054600181600116156101000203166002900490600052602060002090601f016020900481019282620002d5576000855562000321565b82601f10620002f057805160ff191683800117855562000321565b8280016001018555821562000321579182015b828111156200032057825182559160200191906001019062000303565b5b50905062000330919062000334565b5090565b5b808211156200034f57600081600090555060010162000335565b5090565b6000815190506200036481620005c8565b92915050565b600082601f8301126200037c57600080fd5b8151620003936200038d82620004fa565b620004c6565b91508181835260208401935060208101905083856020840282011115620003b957600080fd5b60005b83811015620003ed5781620003d2888262000353565b845260208401935060208301925050600181019050620003bc565b5050505092915050565b600082601f8301126200040957600080fd5b8151620004206200041a8262000529565b620004c6565b915080825260208301602083018583830111156200043d57600080fd5b6200044a83828462000590565b50505092915050565b600080604083850312156200046757600080fd5b600083015167ffffffffffffffff8111156200048257600080fd5b62000490858286016200036a565b925050602083015167ffffffffffffffff811115620004ae57600080fd5b620004bc85828601620003f7565b9150509250929050565b6000604051905081810181811067ffffffffffffffff82111715620004f057620004ef620005c6565b5b8060405250919050565b600067ffffffffffffffff821115620005185762000517620005c6565b5b602082029050602081019050919050565b600067ffffffffffffffff821115620005475762000546620005c6565b5b601f19601f8301169050602081019050919050565b6000620005698262000570565b9050919050565b600073ffffffffffffffffffffffffffffffffffffffff82169050919050565b60005b83811015620005b057808201518184015260208101905062000593565b83811115620005c0576000848401525b50505050565bfe5b620005d3816200055c565b8114620005df57600080fd5b50565b61395980620005f26000396000f3fe608060405234801561001057600080fd5b50600436106100f55760003560e01c806351a8dbcf11610097578063ab97041111610066578063ab9704111461027c578063d95a19a514610298578063dbde207d146102c8578063f9229b84146102e6576100f5565b806351a8dbcf146102085780637bc4518d146102265780637f889fdf14610242578063a1e6a2551461025e576100f5565b806338f14845116100d357806338f148451461016a578063440340281461018657806345f6009e146101b757806348b34ff2146101ec576100f5565b8063182ca514146100fa5780632d4af60614610116578063365b98b214610134575b600080fd5b610114600480360381019061010f91906129f3565b610302565b005b61011e610518565b60405161012b9190613354565b60405180910390f35b61014e60048036038101906101499190612929565b6105e5565b60405161016197969594939291906135d1565b60405180910390f35b610184600480360381019061017f9190612929565b610706565b005b6101a0600480360381019061019b9190612929565b610a0c565b6040516101ae929190613647565b60405180910390f35b6101d160048036038101906101cc9190612929565b610ac8565b6040516101e396959493929190613677565b60405180910390f35b610206600480360381019061020191906128e8565b610b9c565b005b610210610dba565b60405161021d91906135b6565b60405180910390f35b610240600480360381019061023b919061286d565b610dc0565b005b61025c600480360381019061025791906129f3565b611158565b005b61026661140f565b60405161027391906135b6565b60405180910390f35b61029660048036038101906102919190612a47565b611415565b005b6102b260048036038101906102ad9190612929565b6117b2565b6040516102bf9190613354565b60405180910390f35b6102d0611981565b6040516102dd91906135b6565b60405180910390f35b61030060048036038101906102fb9190612952565b611987565b005b600080600190505b60016002540181101561041d573373ffffffffffffffffffffffffffffffffffffffff166003600083815260200190815260200160002060010160009054906101000a900473ffffffffffffffffffffffffffffffffffffffff1673ffffffffffffffffffffffffffffffffffffffff161480156103c157506000600281111561039057fe5b6003600083815260200190815260200160002060030160009054906101000a900460ff1660028111156103bf57fe5b145b80156104065750600060018111156103d557fe5b6003600083815260200190815260200160002060030160019054906101000a900460ff16600181111561040457fe5b145b1561041057600191505b808060010191505061030a565b506001151581151514610465576040517f08c379a000000000000000000000000000000000000000000000000000000000815260040161045c90613456565b60405180910390fd5b61046d6125cd565b61047684611d4f565b90506000816000015114156104c0576040517f08c379a00000000000000000000000000000000000000000000000000000000081526004016104b790613556565b60405180910390fd5b6040518060400160405280858152602001848152506001600086815260200190815260200160002060008201518160000155602082015181600101908051906020019061050e9291906125e7565b5090505050505050565b6060610522612675565b61052b33611f3b565b9050600081600001511415610575576040517f08c379a000000000000000000000000000000000000000000000000000000000815260040161056c90613536565b60405180910390fd5b6000610584826000015161231d565b905060008114156105ca576040517f08c379a00000000000000000000000000000000000000000000000000000000081526004016105c190613396565b60405180910390fd5b60606105da836000015183612376565b905080935050505090565b60036020528060005260406000206000915090508060000154908060010160009054906101000a900473ffffffffffffffffffffffffffffffffffffffff1690806002018054600181600116156101000203166002900480601f0160208091040260200160405190810160405280929190818152602001828054600181600116156101000203166002900480156106bd5780601f10610692576101008083540402835291602001916106bd565b820191906000526020600020905b8154815290600101906020018083116106a057829003601f168201915b5050505050908060030160009054906101000a900460ff16908060030160019054906101000a900460ff16908060030160029054906101000a900460ff16908060040154905087565b600080600190505b600160025401811015610821573373ffffffffffffffffffffffffffffffffffffffff166003600083815260200190815260200160002060010160009054906101000a900473ffffffffffffffffffffffffffffffffffffffff1673ffffffffffffffffffffffffffffffffffffffff161480156107c557506000600281111561079457fe5b6003600083815260200190815260200160002060030160009054906101000a900460ff1660028111156107c357fe5b145b801561080a5750600060018111156107d957fe5b6003600083815260200190815260200160002060030160019054906101000a900460ff16600181111561080857fe5b145b1561081457600191505b808060010191505061070e565b506001151581151514610869576040517f08c379a000000000000000000000000000000000000000000000000000000000815260040161086090613456565b60405180910390fd5b6000600360008481526020019081526020016000206000015414156108c3576040517f08c379a00000000000000000000000000000000000000000000000000000000081526004016108ba90613416565b60405180910390fd5b6108cb612675565b6108d433611f3b565b9050828160000151141561091d576040517f08c379a000000000000000000000000000000000000000000000000000000000815260040161091490613376565b60405180910390fd5b60006109288461231d565b90506000811461096d576040517f08c379a0000000000000000000000000000000000000000000000000000000008152600401610964906133f6565b60405180910390fd5b600360008581526020019081526020016000206000808201600090556001820160006101000a81549073ffffffffffffffffffffffffffffffffffffffff02191690556002820160006109c091906126e0565b6003820160006101000a81549060ff02191690556003820160016101000a81549060ff02191690556003820160026101000a81549060ff02191690556004820160009055505050505050565b6001602052806000526040600020600091509050806000015490806001018054600181600116156101000203166002900480601f016020809104026020016040519081016040528092919081815260200182805460018160011615610100020316600290048015610abe5780601f10610a9357610100808354040283529160200191610abe565b820191906000526020600020905b815481529060010190602001808311610aa157829003601f168201915b5050505050905082565b6005602052806000526040600020600091509050806000015490806001015490806002018054600181600116156101000203166002900480601f016020809104026020016040519081016040528092919081815260200182805460018160011615610100020316600290048015610b805780601f10610b5557610100808354040283529160200191610b80565b820191906000526020600020905b815481529060010190602001808311610b6357829003601f168201915b5050505050908060030154908060040154908060050154905086565b600080600190505b600160025401811015610cb7573373ffffffffffffffffffffffffffffffffffffffff166003600083815260200190815260200160002060010160009054906101000a900473ffffffffffffffffffffffffffffffffffffffff1673ffffffffffffffffffffffffffffffffffffffff16148015610c5b575060006002811115610c2a57fe5b6003600083815260200190815260200160002060030160009054906101000a900460ff166002811115610c5957fe5b145b8015610ca0575060006001811115610c6f57fe5b6003600083815260200190815260200160002060030160019054906101000a900460ff166001811115610c9e57fe5b145b15610caa57600191505b8080600101915050610ba4565b506001151581151514610cff576040517f08c379a0000000000000000000000000000000000000000000000000000000008152600401610cf690613456565b60405180910390fd5b6000610d0a8361252e565b905060008114610d4f576040517f08c379a0000000000000000000000000000000000000000000000000000000008152600401610d46906134b6565b60405180910390fd5b60405180604001604052806000548152602001848152506001600080548152602001908152602001600020600082015181600001556020820151816001019080519060200190610da09291906125e7565b509050506000808154809291906001019190505550505050565b60005481565b600080600190505b600160025401811015610edb573373ffffffffffffffffffffffffffffffffffffffff166003600083815260200190815260200160002060010160009054906101000a900473ffffffffffffffffffffffffffffffffffffffff1673ffffffffffffffffffffffffffffffffffffffff16148015610e7f575060006002811115610e4e57fe5b6003600083815260200190815260200160002060030160009054906101000a900460ff166002811115610e7d57fe5b145b8015610ec4575060006001811115610e9357fe5b6003600083815260200190815260200160002060030160019054906101000a900460ff166001811115610ec257fe5b145b15610ece57600191505b8080600101915050610dc8565b506001151581151514610f23576040517f08c379a0000000000000000000000000000000000000000000000000000000008152600401610f1a90613456565b60405180910390fd5b610f2b612675565b610f3486611f3b565b90506000816000015114610f7d576040517f08c379a0000000000000000000000000000000000000000000000000000000008152600401610f74906134f6565b60405180910390fd5b600060016000858152602001908152602001600020600001541415610fd7576040517f08c379a0000000000000000000000000000000000000000000000000000000008152600401610fce90613476565b60405180910390fd5b6040518060e0016040528060025481526020018773ffffffffffffffffffffffffffffffffffffffff16815260200186815260200185600281111561101857fe5b81526020016000600181111561102a57fe5b8152602001600115158152602001848152506003600060025481526020019081526020016000206000820151816000015560208201518160010160006101000a81548173ffffffffffffffffffffffffffffffffffffffff021916908373ffffffffffffffffffffffffffffffffffffffff16021790555060408201518160020190805190602001906110be9291906125e7565b5060608201518160030160006101000a81548160ff021916908360028111156110e357fe5b021790555060808201518160030160016101000a81548160ff0219169083600181111561110c57fe5b021790555060a08201518160030160026101000a81548160ff02191690831515021790555060c08201518160040155905050600260008154809291906001019190505550505050505050565b600080600190505b600160025401811015611273573373ffffffffffffffffffffffffffffffffffffffff166003600083815260200190815260200160002060010160009054906101000a900473ffffffffffffffffffffffffffffffffffffffff1673ffffffffffffffffffffffffffffffffffffffff161480156112175750600160028111156111e657fe5b6003600083815260200190815260200160002060030160009054906101000a900460ff16600281111561121557fe5b145b801561125c57506000600181111561122b57fe5b6003600083815260200190815260200160002060030160019054906101000a900460ff16600181111561125a57fe5b145b1561126657600191505b8080600101915050611160565b5060011515811515146112bb576040517f08c379a00000000000000000000000000000000000000000000000000000000081526004016112b2906134d6565b60405180910390fd5b60008314156112ff576040517f08c379a00000000000000000000000000000000000000000000000000000000081526004016112f690613576565b60405180910390fd5b611307612675565b61131033611f3b565b90508381600001511415611359576040517f08c379a000000000000000000000000000000000000000000000000000000000815260040161135090613516565b60405180910390fd5b6040518060c001604052808581526020016004548152602001848152602001826000015181526020018260c00151815260200142815250600560006004548152602001908152602001600020600082015181600001556020820151816001015560408201518160020190805190602001906113d59291906125e7565b50606082015181600301556080820151816004015560a0820151816005015590505060046000815480929190600101919050555050505050565b60025481565b600080600190505b600160025401811015611530573373ffffffffffffffffffffffffffffffffffffffff166003600083815260200190815260200160002060010160009054906101000a900473ffffffffffffffffffffffffffffffffffffffff1673ffffffffffffffffffffffffffffffffffffffff161480156114d45750600160028111156114a357fe5b6003600083815260200190815260200160002060030160009054906101000a900460ff1660028111156114d257fe5b145b80156115195750600060018111156114e857fe5b6003600083815260200190815260200160002060030160019054906101000a900460ff16600181111561151757fe5b145b1561152357600191505b808060010191505061141d565b506001151581151514611578576040517f08c379a000000000000000000000000000000000000000000000000000000000815260040161156f906134d6565b60405180910390fd5b8460056000868152602001908152602001600020600001541480156115b25750836005600086815260200190815260200160002060010154145b6115f1576040517f08c379a00000000000000000000000000000000000000000000000000000000081526004016115e890613596565b60405180910390fd5b6115f9612675565b61160233611f3b565b9050858160000151141561164b576040517f08c379a0000000000000000000000000000000000000000000000000000000008152600401611642906133d6565b60405180910390fd5b8060000151600560008781526020019081526020016000206003015414801561168d57508060c001516005600087815260200190815260200160002060040154145b6116cc576040517f08c379a00000000000000000000000000000000000000000000000000000000081526004016116c3906133b6565b60405180910390fd5b6040518060c0016040528087815260200186815260200185858080601f016020809104026020016040519081016040528093929190818152602001838380828437600081840152601f19601f820116905080830192505050505050508152602001826000015181526020018260c0015181526020014281525060056000878152602001908152602001600020600082015181600001556020820151816001015560408201518160020190805190602001906117889291906125e7565b50606082015181600301556080820151816004015560a08201518160050155905050505050505050565b6060600080600190505b6001600254018110156118cf573373ffffffffffffffffffffffffffffffffffffffff166003600083815260200190815260200160002060010160009054906101000a900473ffffffffffffffffffffffffffffffffffffffff1673ffffffffffffffffffffffffffffffffffffffff1614801561187357506001600281111561184257fe5b6003600083815260200190815260200160002060030160009054906101000a900460ff16600281111561187157fe5b145b80156118b857506000600181111561188757fe5b6003600083815260200190815260200160002060030160019054906101000a900460ff1660018111156118b657fe5b145b156118c257600191505b80806001019150506117bc565b506001151581151514611917576040517f08c379a000000000000000000000000000000000000000000000000000000000815260040161190e906134d6565b60405180910390fd5b60006119228461231d565b90506000811415611968576040517f08c379a000000000000000000000000000000000000000000000000000000000815260040161195f90613396565b60405180910390fd5b60606119748583612376565b9050809350505050919050565b60045481565b600080600190505b600160025401811015611aa2573373ffffffffffffffffffffffffffffffffffffffff166003600083815260200190815260200160002060010160009054906101000a900473ffffffffffffffffffffffffffffffffffffffff1673ffffffffffffffffffffffffffffffffffffffff16148015611a46575060006002811115611a1557fe5b6003600083815260200190815260200160002060030160009054906101000a900460ff166002811115611a4457fe5b145b8015611a8b575060006001811115611a5a57fe5b6003600083815260200190815260200160002060030160019054906101000a900460ff166001811115611a8957fe5b145b15611a9557600191505b808060010191505061198f565b506001151581151514611aea576040517f08c379a0000000000000000000000000000000000000000000000000000000008152600401611ae190613456565b60405180910390fd5b6000871415611b2e576040517f08c379a0000000000000000000000000000000000000000000000000000000008152600401611b2590613416565b60405180910390fd5b611b36612675565b611b3f87611f3b565b90506000816000015114611b88576040517f08c379a0000000000000000000000000000000000000000000000000000000008152600401611b7f90613436565b60405180910390fd5b611b90612675565b611b9933611f3b565b90508881600001511415611be2576040517f08c379a0000000000000000000000000000000000000000000000000000000008152600401611bd990613496565b60405180910390fd5b6040518060e001604052808a81526020018973ffffffffffffffffffffffffffffffffffffffff168152602001888152602001876002811115611c2157fe5b8152602001866001811115611c3257fe5b815260200160011515815260200185815250600360008b81526020019081526020016000206000820151816000015560208201518160010160006101000a81548173ffffffffffffffffffffffffffffffffffffffff021916908373ffffffffffffffffffffffffffffffffffffffff1602179055506040820151816002019080519060200190611cc49291906125e7565b5060608201518160030160006101000a81548160ff02191690836002811115611ce957fe5b021790555060808201518160030160016101000a81548160ff02191690836001811115611d1257fe5b021790555060a08201518160030160026101000a81548160ff02191690831515021790555060c08201518160040155905050505050505050505050565b611d576125cd565b6000600190505b600160005401811015611e68578260016000838152602001908152602001600020600001541415611e5b576001600082815260200190815260200160002060405180604001604052908160008201548152602001600182018054600181600116156101000203166002900480601f016020809104026020016040519081016040528092919081815260200182805460018160011615610100020316600290048015611e4a5780601f10611e1f57610100808354040283529160200191611e4a565b820191906000526020600020905b815481529060010190602001808311611e2d57829003601f168201915b505050505081525050915050611f36565b8080600101915050611d5e565b506001600080815260200190815260200160002060405180604001604052908160008201548152602001600182018054600181600116156101000203166002900480601f016020809104026020016040519081016040528092919081815260200182805460018160011615610100020316600290048015611f2a5780601f10611eff57610100808354040283529160200191611f2a565b820191906000526020600020905b815481529060010190602001808311611f0d57829003601f168201915b50505050508152505090505b919050565b611f43612675565b6000600190505b600160025401811015612175578273ffffffffffffffffffffffffffffffffffffffff166003600083815260200190815260200160002060010160009054906101000a900473ffffffffffffffffffffffffffffffffffffffff1673ffffffffffffffffffffffffffffffffffffffff16141561216857600360008281526020019081526020016000206040518060e0016040529081600082015481526020016001820160009054906101000a900473ffffffffffffffffffffffffffffffffffffffff1673ffffffffffffffffffffffffffffffffffffffff1673ffffffffffffffffffffffffffffffffffffffff168152602001600282018054600181600116156101000203166002900480601f0160208091040260200160405190810160405280929190818152602001828054600181600116156101000203166002900480156120d85780601f106120ad576101008083540402835291602001916120d8565b820191906000526020600020905b8154815290600101906020018083116120bb57829003601f168201915b505050505081526020016003820160009054906101000a900460ff1660028111156120ff57fe5b600281111561210a57fe5b81526020016003820160019054906101000a900460ff16600181111561212c57fe5b600181111561213757fe5b81526020016003820160029054906101000a900460ff16151515158152602001600482015481525050915050612318565b8080600101915050611f4a565b50600360008081526020019081526020016000206040518060e0016040529081600082015481526020016001820160009054906101000a900473ffffffffffffffffffffffffffffffffffffffff1673ffffffffffffffffffffffffffffffffffffffff1673ffffffffffffffffffffffffffffffffffffffff168152602001600282018054600181600116156101000203166002900480601f01602080910402602001604051908101604052809291908181526020018280546001816001161561010002031660029004801561228d5780601f106122625761010080835404028352916020019161228d565b820191906000526020600020905b81548152906001019060200180831161227057829003601f168201915b505050505081526020016003820160009054906101000a900460ff1660028111156122b457fe5b60028111156122bf57fe5b81526020016003820160019054906101000a900460ff1660018111156122e157fe5b60018111156122ec57fe5b81526020016003820160029054906101000a900460ff1615151515815260200160048201548152505090505b919050565b600080600090506000600190505b60016004540181101561236c57836005600083815260200190815260200160002060000154141561235f5781806001019250505b808060010191505061232b565b5080915050919050565b6060808267ffffffffffffffff8111801561239057600080fd5b506040519080825280602002602001820160405280156123ca57816020015b6123b7612728565b8152602001906001900390816123af5790505b509050600080600190505b6001600454018110156125225785600560008381526020019081526020016000206000015414156125155760006005600083815260200190815260200160002090506040518060c001604052808260000154815260200182600101548152602001826002018054600181600116156101000203166002900480601f0160208091040260200160405190810160405280929190818152602001828054600181600116156101000203166002900480156124ce5780601f106124a3576101008083540402835291602001916124ce565b820191906000526020600020905b8154815290600101906020018083116124b157829003601f168201915b505050505081526020018260030154815260200182600401548152602001826005015481525084848151811061250057fe5b60200260200101819052508280600101935050505b80806001019150506123d5565b50819250505092915050565b600080600190505b6001600054018110156125c257826040516020016125549190613326565b6040516020818303038152906040528051906020012060016000838152602001908152602001600020600101604051602001612590919061333d565b6040516020818303038152906040528051906020012014156125b557809150506125c8565b8080600101915050612536565b50600090505b919050565b604051806040016040528060008152602001606081525090565b828054600181600116156101000203166002900490600052602060002090601f01602090048101928261261d5760008555612664565b82601f1061263657805160ff1916838001178555612664565b82800160010185558215612664579182015b82811115612663578251825591602001919060010190612648565b5b509050612671919061275e565b5090565b6040518060e0016040528060008152602001600073ffffffffffffffffffffffffffffffffffffffff16815260200160608152602001600060028111156126b857fe5b8152602001600060018111156126ca57fe5b8152602001600015158152602001600081525090565b50805460018160011615610100020316600290046000825580601f106127065750612725565b601f016020900490600052602060002090810190612724919061275e565b5b50565b6040518060c001604052806000815260200160008152602001606081526020016000815260200160008152602001600081525090565b5b8082111561277757600081600090555060010161275f565b5090565b60008135905061278a816138d5565b92915050565b60008135905061279f816138ec565b92915050565b6000813590506127b4816138fc565b92915050565b60008083601f8401126127cc57600080fd5b8235905067ffffffffffffffff8111156127e557600080fd5b6020830191508360018202830111156127fd57600080fd5b9250929050565b600082601f83011261281557600080fd5b813561282861282382613710565b6136df565b9150808252602083016020830185838301111561284457600080fd5b61284f838284613858565b50505092915050565b6000813590506128678161390c565b92915050565b6000806000806080858703121561288357600080fd5b60006128918782880161277b565b945050602085013567ffffffffffffffff8111156128ae57600080fd5b6128ba87828801612804565b93505060406128cb87828801612790565b92505060606128dc87828801612858565b91505092959194509250565b6000602082840312156128fa57600080fd5b600082013567ffffffffffffffff81111561291457600080fd5b61292084828501612804565b91505092915050565b60006020828403121561293b57600080fd5b600061294984828501612858565b91505092915050565b60008060008060008060c0878903121561296b57600080fd5b600061297989828a01612858565b965050602061298a89828a0161277b565b955050604087013567ffffffffffffffff8111156129a757600080fd5b6129b389828a01612804565b94505060606129c489828a01612790565b93505060806129d589828a016127a5565b92505060a06129e689828a01612858565b9150509295509295509295565b60008060408385031215612a0657600080fd5b6000612a1485828601612858565b925050602083013567ffffffffffffffff811115612a3157600080fd5b612a3d85828601612804565b9150509250929050565b60008060008060608587031215612a5d57600080fd5b6000612a6b87828801612858565b9450506020612a7c87828801612858565b935050604085013567ffffffffffffffff811115612a9957600080fd5b612aa5878288016127ba565b925092505092959194509250565b6000612abf838361327f565b905092915050565b612ad0816137c6565b82525050565b6000612ae182613765565b612aeb8185613788565b935083602082028501612afd85613740565b8060005b85811015612b395784840389528151612b1a8582612ab3565b9450612b258361377b565b925060208a01995050600181019050612b01565b50829750879550505050505092915050565b612b54816137d8565b82525050565b612b6381613834565b82525050565b612b7281613846565b82525050565b6000612b8382613770565b612b8d8185613799565b9350612b9d818560208601613867565b612ba68161389c565b840191505092915050565b6000612bbc82613770565b612bc681856137aa565b9350612bd6818560208601613867565b612bdf8161389c565b840191505092915050565b6000612bf582613770565b612bff81856137bb565b9350612c0f818560208601613867565b80840191505092915050565b600081546001811660008114612c385760018114612c5d57612ca1565b607f6002830416612c4981876137bb565b955060ff1983168652808601935050612ca1565b60028204612c6b81876137bb565b9550612c7685613750565b60005b82811015612c9857815481890152600182019150602081019050612c79565b82880195505050505b505092915050565b6000612cb6601d836137aa565b91507f63616e6e6f742064656c65746520796f7572206f776e207265636f72640000006000830152602082019050919050565b6000612cf66021836137aa565b91507f6e6f20686973746f72792065786973747320666f72207468652070617469656e60008301527f74000000000000000000000000000000000000000000000000000000000000006020830152604082019050919050565b6000612d5c6028836137aa565b91507f63616e6e6f74206d6f64696679207265636f726473206f66206f74686572207060008301527f726f7669646572730000000000000000000000000000000000000000000000006020830152604082019050919050565b6000612dc26025836137aa565b91507f63616e6e6f74206372656174652f6d6f6469667920796f7572206f776e20726560008301527f636f7264730000000000000000000000000000000000000000000000000000006020830152604082019050919050565b6000612e28602b836137aa565b91507f63616e6e6f742064656c65746520626563617573652070617469656e7420726560008301527f636f7264732065786973740000000000000000000000000000000000000000006020830152604082019050919050565b6000612e8e6013836137aa565b91507f7573657220646f6573206e6f74206578697374000000000000000000000000006000830152602082019050919050565b6000612ece6031836137aa565b91507f6e6577207573657220616464726573732062656c6f6e677320746f20616e6f7460008301527f686572206578697374696e6720757365720000000000000000000000000000006020830152604082019050919050565b6000612f34600a836137aa565b91507f6f6e6c792061646d696e000000000000000000000000000000000000000000006000830152602082019050919050565b6000612f74601f836137aa565b91507f736572766963652070726f766964657220646f6573206e6f74206578697374006000830152602082019050919050565b6000612fb4601d836137aa565b91507f63616e6e6f74206d6f6469667920796f7572206f776e207265636f72640000006000830152602082019050919050565b6000612ff46017836137aa565b91507f70726f766964657220616c7265616479206578697374730000000000000000006000830152602082019050919050565b60006130346045836137aa565b91507f70617469656e74207265636f72642063616e20626520637265617465642f207260008301527f6561642f2075706461746564206f6e6c7920627920616e20616374697665206460208301527f6f63746f720000000000000000000000000000000000000000000000000000006040830152606082019050919050565b60006130c06013836137aa565b91507f7573657220616c726561647920657869737473000000000000000000000000006000830152602082019050919050565b60006131006024836137aa565b91507f63616e6e6f74206372656174652f6d6f6469667920796f7572206f776e20726560008301527f636f7264000000000000000000000000000000000000000000000000000000006020830152604082019050919050565b60006131666014836137aa565b91507f7573657220646f6573206e6f74206578697374730000000000000000000000006000830152602082019050919050565b60006131a66017836137aa565b91507f70726f766964657220646f6573206e6f742065786973740000000000000000006000830152602082019050919050565b60006131e66016836137aa565b91507f70617469656e7420646f6573206e6f74206578697374000000000000000000006000830152602082019050919050565b60006132266031836137aa565b91507f70617469656e74496420616e64207265636f7264496420636f6d62696e61746960008301527f6f6e20646f6573206e6f742065786973740000000000000000000000000000006020830152604082019050919050565b600060c0830160008301516132976000860182613308565b5060208301516132aa6020860182613308565b50604083015184820360408601526132c28282612b78565b91505060608301516132d76060860182613308565b5060808301516132ea6080860182613308565b5060a08301516132fd60a0860182613308565b508091505092915050565b6133118161382a565b82525050565b6133208161382a565b82525050565b60006133328284612bea565b915081905092915050565b60006133498284612c1b565b915081905092915050565b6000602082019050818103600083015261336e8184612ad6565b905092915050565b6000602082019050818103600083015261338f81612ca9565b9050919050565b600060208201905081810360008301526133af81612ce9565b9050919050565b600060208201905081810360008301526133cf81612d4f565b9050919050565b600060208201905081810360008301526133ef81612db5565b9050919050565b6000602082019050818103600083015261340f81612e1b565b9050919050565b6000602082019050818103600083015261342f81612e81565b9050919050565b6000602082019050818103600083015261344f81612ec1565b9050919050565b6000602082019050818103600083015261346f81612f27565b9050919050565b6000602082019050818103600083015261348f81612f67565b9050919050565b600060208201905081810360008301526134af81612fa7565b9050919050565b600060208201905081810360008301526134cf81612fe7565b9050919050565b600060208201905081810360008301526134ef81613027565b9050919050565b6000602082019050818103600083015261350f816130b3565b9050919050565b6000602082019050818103600083015261352f816130f3565b9050919050565b6000602082019050818103600083015261354f81613159565b9050919050565b6000602082019050818103600083015261356f81613199565b9050919050565b6000602082019050818103600083015261358f816131d9565b9050919050565b600060208201905081810360008301526135af81613219565b9050919050565b60006020820190506135cb6000830184613317565b92915050565b600060e0820190506135e6600083018a613317565b6135f36020830189612ac7565b81810360408301526136058188612bb1565b90506136146060830187612b5a565b6136216080830186612b69565b61362e60a0830185612b4b565b61363b60c0830184613317565b98975050505050505050565b600060408201905061365c6000830185613317565b818103602083015261366e8184612bb1565b90509392505050565b600060c08201905061368c6000830189613317565b6136996020830188613317565b81810360408301526136ab8187612bb1565b90506136ba6060830186613317565b6136c76080830185613317565b6136d460a0830184613317565b979650505050505050565b6000604051905081810181811067ffffffffffffffff821117156137065761370561389a565b5b8060405250919050565b600067ffffffffffffffff82111561372b5761372a61389a565b5b601f19601f8301169050602081019050919050565b6000819050602082019050919050565b60008190508160005260206000209050919050565b600081519050919050565b600081519050919050565b6000602082019050919050565b600082825260208201905092915050565b600082825260208201905092915050565b600082825260208201905092915050565b600081905092915050565b60006137d18261380a565b9050919050565b60008115159050919050565b60008190506137f2826138ad565b919050565b6000819050613805826138c1565b919050565b600073ffffffffffffffffffffffffffffffffffffffff82169050919050565b6000819050919050565b600061383f826137e4565b9050919050565b6000613851826137f7565b9050919050565b82818337600083830152505050565b60005b8381101561388557808201518184015260208101905061386a565b83811115613894576000848401525b50505050565bfe5b6000601f19601f8301169050919050565b600381106138be576138bd61389a565b5b50565b600281106138d2576138d161389a565b5b50565b6138de816137c6565b81146138e957600080fd5b50565b600381106138f957600080fd5b50565b6002811061390957600080fd5b50565b6139158161382a565b811461392057600080fd5b5056fea2646970667358221220f11f97418c9de389720b225dfb33f3e2b96664294b9869d96cd5c540a99fec6064736f6c63430007040033",
  "immutableReferences": {},
  "source": "pragma solidity ^0.7.4;\r\npragma experimental ABIEncoderV2;\r\n\r\ncontract HealthRecordMgt{\r\n    \r\n    struct ServiceProvider{\r\n        uint providerId;\r\n        string providerName;\r\n    }\r\n    uint public nextProviderId = 1;\r\n    mapping(uint => ServiceProvider) public serviceproviders;\r\n    \r\n    enum RoleType{\r\n        ADMIN,\r\n        DOCTOR,\r\n        PATIENT\r\n    }\r\n    \r\n    enum StatusType{\r\n        ACTIVE,\r\n        INACTIVE\r\n    }\r\n    \r\n    struct User{\r\n        uint userId;\r\n        address user;\r\n        string userName;\r\n        RoleType role;\r\n        StatusType userStatus;\r\n        bool created;\r\n        uint providerId;\r\n    }\r\n    uint public nextUserId = 1;\r\n    mapping(uint => User) public users;\r\n    \r\n    \r\n    struct HealthRecord{\r\n        uint patientId;          // same as userId\r\n        uint recordId;           // health instance or hospital visit instance\r\n        string healthRemarks;\r\n        uint doctorId;\r\n        uint providerId;\r\n        uint date;\r\n    }\r\n    uint public nextRecordId = 1;\r\n    mapping(uint => HealthRecord) public healthrecords; \r\n    \r\n    constructor (address[] memory _admin, string memory providerName) {\r\n   \r\n        serviceproviders[nextProviderId] = ServiceProvider(\r\n                nextProviderId,\r\n                providerName\r\n            );\r\n            nextProviderId++;\r\n        \r\n        for (uint i = 0; i < _admin.length; i++){\r\n            users[nextUserId] = User(\r\n                nextUserId,\r\n                _admin[i],\r\n                \"Admin\",\r\n                RoleType.ADMIN,\r\n                StatusType.ACTIVE,\r\n                true,\r\n                nextProviderId\r\n             );\r\n             nextUserId++;\r\n         }\r\n    }\r\n    \r\n    function addServiceProvider(string memory providerName)\r\n    public \r\n    onlyAdmin()\r\n    {\r\n        uint _providerId = findProviderId(providerName);\r\n        require(_providerId == 0, 'provider already exists');\r\n        \r\n        serviceproviders[nextProviderId] = ServiceProvider(\r\n                nextProviderId,\r\n                providerName\r\n            );\r\n            nextProviderId++;\r\n    }\r\n   \r\n   \r\n    function updateServiceProvider(uint providerId, string memory providerName)\r\n    public \r\n    onlyAdmin()\r\n    {\r\n        ServiceProvider memory _provider = findProvider(providerId);\r\n        require(_provider.providerId != 0, 'provider does not exist');\r\n        \r\n        serviceproviders[providerId] = ServiceProvider(\r\n            providerId,\r\n            providerName\r\n        );\r\n    }\r\n  \r\n    \r\n    function addUser(address user, string memory userName, RoleType role, uint providerId ) \r\n    public\r\n    onlyAdmin()\r\n    {\r\n        User memory _user = findUser(user);\r\n        require(_user.userId == 0, 'user already exists');\r\n        require (serviceproviders[providerId].providerId !=0, \"service provider does not exist\");\r\n        \r\n        users[nextUserId] = User(\r\n                nextUserId,\r\n                user,\r\n                userName,\r\n                role,\r\n                StatusType.ACTIVE,\r\n                true,\r\n                providerId\r\n            );\r\n            nextUserId++;\r\n    }\r\n    \r\n    \r\n    function updateUser(uint userId, address user, string memory userName, RoleType role, StatusType userStatus, uint providerId ) \r\n    public\r\n    onlyAdmin()\r\n       {\r\n        require(userId != 0, 'user does not exist');\r\n        \r\n        User memory _user = findUser(user);\r\n        require(_user.userId == 0, 'new user address belongs to another existing user');\r\n        \r\n        User memory _user2 = findUser(msg.sender);\r\n        require(_user2.userId != userId, 'cannot modify your own record');\r\n        \r\n        users[userId] = User(\r\n                userId,\r\n                user,\r\n                userName,\r\n                role,\r\n                userStatus,\r\n                true,\r\n                providerId\r\n            );\r\n    }\r\n    \r\n    \r\n    function deleteUser(uint userId) \r\n    public\r\n    onlyAdmin()\r\n       {\r\n        require(users[userId].userId != 0, 'user does not exist');\r\n        \r\n        User memory _user = findUser(msg.sender);\r\n        require(_user.userId != userId, 'cannot delete your own record');\r\n        \r\n        uint _patientRecordCount = getPatientRecordCount(userId);\r\n        require(_patientRecordCount == 0, 'cannot delete because patient records exist');\r\n        \r\n        delete users[userId];\r\n    }\r\n    \r\n    function findProvider(uint providerId) view internal returns(ServiceProvider memory){\r\n        for (uint i = 1; i < nextProviderId+1 ; i++){\r\n            if(serviceproviders[i].providerId == providerId) {\r\n                return serviceproviders[i];\r\n            }\r\n        }\r\n        return serviceproviders[0];\r\n    }\r\n    \r\n   \r\n    function findProviderId(string memory providerName) view internal returns(uint){\r\n        for (uint i = 1; i < nextProviderId+1 ; i++){\r\n            if(keccak256(abi.encodePacked((serviceproviders[i].providerName))) == keccak256(abi.encodePacked(providerName))) {\r\n                return i;\r\n            }\r\n        }\r\n        return 0;\r\n    }\r\n \r\n    function createHealthRecord(uint patientId, string memory helathRemarks)\r\n    public\r\n    onlyDoctor(){\r\n        \r\n        require(patientId != 0, 'patient does not exist');\r\n        User memory _doctor = findUser(msg.sender);\r\n        require(_doctor.userId != patientId , 'cannot create/modify your own record');\r\n        \r\n        healthrecords[nextRecordId] = HealthRecord(patientId,\r\n                nextRecordId,\r\n                helathRemarks,\r\n                _doctor.userId,\r\n                _doctor.providerId,\r\n                block.timestamp\r\n            );\r\n            nextRecordId++;\r\n    }\r\n    \r\n    function updateHealthRecord(uint patientId, uint recordId, string calldata helathRemarks) public \r\n    onlyDoctor{\r\n        \r\n        require(healthrecords[recordId].patientId == patientId &&\r\n                healthrecords[recordId].recordId == recordId,\r\n                'patientId and recordId combination does not exist');\r\n        \r\n        User memory _doctor = findUser(msg.sender);\r\n        require(_doctor.userId != patientId , 'cannot create/modify your own records');\r\n        \r\n        require(healthrecords[recordId].doctorId == _doctor.userId && \r\n                healthrecords[recordId].providerId == _doctor.providerId,\r\n                'cannot modify records of other providers');                \r\n        \r\n        healthrecords[recordId] = HealthRecord(patientId,\r\n                recordId,\r\n                helathRemarks,\r\n                _doctor.userId,\r\n                _doctor.providerId,\r\n                block.timestamp\r\n            );\r\n    }\r\n    \r\n    function getHealthRecords(uint patientId) view public onlyDoctor returns (HealthRecord[] memory){\r\n        \r\n        uint _patientRecordCount = getPatientRecordCount(patientId);\r\n        require(_patientRecordCount != 0, 'no history exists for the patient');\r\n        \r\n        HealthRecord[] memory _healthrecords = listHealthRecords(patientId,_patientRecordCount);\r\n        return _healthrecords;\r\n        \r\n    }\r\n    \r\n    function getMyHealthRecords() view public returns (HealthRecord[] memory){\r\n        \r\n        User memory _user = findUser(msg.sender);\r\n        require(_user.userId != 0, 'user does not exists');\r\n        \r\n        uint _patientRecordCount = getPatientRecordCount(_user.userId);\r\n        require(_patientRecordCount != 0, 'no history exists for the patient');\r\n        \r\n        HealthRecord[] memory _healthrecords = listHealthRecords(_user.userId,_patientRecordCount);\r\n        return _healthrecords;\r\n        \r\n    }\r\n    \r\n    \r\n    function listHealthRecords(uint patientId, uint count) view internal returns (HealthRecord[] memory){\r\n        HealthRecord[] memory _healthrecords = new HealthRecord[](count);\r\n        uint j = 0;\r\n        \r\n        for (uint i = 1; i<nextRecordId+1; i++){\r\n            if (healthrecords[i].patientId == patientId){\r\n                HealthRecord storage _healthrecord = healthrecords[i];\r\n                \r\n                _healthrecords[j]= HealthRecord(\r\n                    _healthrecord.patientId,\r\n                    _healthrecord.recordId,\r\n                    _healthrecord.healthRemarks,\r\n                    _healthrecord.doctorId,\r\n                    _healthrecord.providerId,\r\n                    _healthrecord.date\r\n                );\r\n                j++;\r\n            }\r\n        }\r\n        return _healthrecords;\r\n    }\r\n    \r\n    \r\n    function getPatientRecordCount( uint patientId) view internal returns (uint){\r\n        uint _patientRecordCount = 0;\r\n        for(uint i = 1; i < nextRecordId+1; i++){\r\n            if (healthrecords[i].patientId == patientId){\r\n                _patientRecordCount++;\r\n            }\r\n        }\r\n        return _patientRecordCount;\r\n    }\r\n    \r\n    \r\n    function findUser(address user) view internal returns(User memory){\r\n        for (uint i = 1; i < nextUserId+1 ; i++){\r\n            if(users[i].user == user) {\r\n                return users[i];\r\n            }\r\n        }\r\n        return users[0];\r\n    }\r\n    \r\n    modifier onlyAdmin(){\r\n        bool _isAdmin = false;\r\n        for (uint i = 1; i < nextUserId+1 ; i++){\r\n            if(users[i].user == msg.sender &&\r\n                users[i].role == RoleType.ADMIN &&\r\n                users[i].userStatus == StatusType.ACTIVE ) {\r\n                _isAdmin = true;\r\n            }\r\n        }\r\n        require (_isAdmin == true, 'only admin');\r\n        _;\r\n    }\r\n    \r\n    modifier onlyDoctor(){\r\n        bool _isDoctor = false;\r\n        for (uint i = 1; i < nextUserId+1 ; i++){\r\n            if(users[i].user == msg.sender &&\r\n                users[i].role == RoleType.DOCTOR &&\r\n                users[i].userStatus == StatusType.ACTIVE ) {\r\n                _isDoctor = true;\r\n            }\r\n        }\r\n        require (_isDoctor == true, 'patient record can be created/ read/ updated only by an active doctor');\r\n        _;\r\n    }\r\n    \r\n}",
  "sourcePath": "C:/Users/Zulfikar/DAPPS/Program1/HealthRecordMgt/contracts/HealthRecordMgt.sol",
  "compiler": {
    "name": "solc",
    "version": "0.7.4+commit.3f05b770.Emscripten.clang"
  },
  "schemaVersion": "3.3.1",
  "updatedAt": "2020-11-16T05:41:40.814Z",
  "networkType": "ethereum",
  "devdoc": {
    "kind": "dev",
    "methods": {},
    "version": 1
  },
  "userdoc": {
    "kind": "user",
    "methods": {},
    "version": 1
  }
}